:0400000076EF06F0A1
:1008000000504F543A2000300031003200330034A1
:1008100000350036003700380039000026BE1AEFD8
:1008200004F0E80E255C030E2658D8A01AEF04F059
:100830001CEF04F030EF04F0090E156E080E166E72
:1008400025C01DF026C01EF0030E206EE80E1F6EA0
:100850007EEC05F01DC025F01EC026F0BAEF04F0B6
:1008600026BE3CEF04F0265009E1640E255CD8A0BA
:100870003CEF04F03EEF04F065EF04F025C01DF0FE
:1008800026C01EF0000E206E640E1F6EC4EC04F035
:10089000D8901D361E36010E1D24D96E000E1E2066
:1008A000DA6EDECF17F0DDCF18F025C01DF026C0C0
:1008B0001EF0000E206E640E1F6E7EEC05F01DC053
:1008C00025F01EC026F0BAEF04F026BE71EF04F04A
:1008D000265009E10A0E255CD8A071EF04F073EFF1
:1008E00004F09AEF04F025C01DF026C01EF0000EA3
:1008F000206E0A0E1F6EC4EC04F0D8901D361E3612
:10090000010E1D24D96E000E1E20DA6EDECF19F006
:10091000DDCF1AF025C01DF026C01EF0000E206E9F
:100920000A0E1F6E7EEC05F01DC025F01EC026F0DD
:10093000BAEF04F026BEA5EF04F0265008E1250426
:10094000D8A0A5EF04F0A7EF04F0BAEF04F0D89018
:100950002534D96E2634DA6E010ED926000EDA223D
:10096000DECF1BF0DDCF1CF0000E266E000E256ED4
:10097000BAEF04F025502610D8A4C1EF04F0C3EF5D
:1009800004F00EEF04F01200000E226E20BECDEF38
:1009900004F0CBEF04F0D3EF04F01F6C201ED8B0AE
:1009A000202A010E226E1EBEDAEF04F0D8EF04F00A
:1009B000E0EF04F01D6C1E1ED8B01E2A010E221A94
:1009C000000E246E000E236E1F502010D8B4EBEFE3
:1009D00004F0EDEF04F015EF05F0010E216EF5EFD8
:1009E00004F0D8901F362036212A20AEFAEF04F00A
:1009F000FCEF04F0F1EF04F0D890233624361F50BA
:100A00001D5C20501E58D8A008EF05F00AEF05F035
:100A10000FEF05F01F501D5E20501E5A2380D89006
:100A200020321F32212EFCEF04F02250D8B41BEFED
:100A300005F01DEF05F021EF05F0236C241ED8B062
:100A4000242A23C01DF024C01EF01200C6EC06F0BC
:100A500024EC06F0020E5CEC06F0010E5CEC06F0F5
:100A6000070E156E080E166E070E176E080E186E1E
:100A7000070E196E080E1A6E070E1B6E080E1C6EFE
:100A8000000E1E6E000E1D6ED6EC05F01DC029F086
:100A90001EC02AF029C025F02AC026F00EEC04F072
:100AA000010E216E080E226E41EC06F015C021F0F9
:100AB00016C022F041EC06F017C021F018C022F059
:100AC00041EC06F019C021F01AC022F041EC06F00A
:100AD0001BC021F01CC022F041EC06F01A0E286E5B
:100AE0005E0E276E6E0EE82EFED7272EFCD7282E20
:100AF000FAD700D02DEF05F000EF00F0000E226EC7
:100B00001EBE87EF05F085EF05F08DEF05F01D6C3B
:100B10001E1ED8B01E2A010E226E20BE94EF05F0D4
:100B200092EF05F098EF05F01F6C201ED8B0202A38
:100B30001F502010D8B49FEF05F0A1EF05F0C5EFCE
:100B400005F0010E216EA9EF05F0D8901F36203672
:100B5000212A20AEAEEF05F0B0EF05F0A5EF05F0CD
:100B60001F501D5C20501E58D8A0B9EF05F0BBEFF8
:100B700005F0BFEF05F01F501D5E20501E5AD890A3
:100B800020321F32212EB0EF05F02250D8B4CBEF27
:100B900005F0CDEF05F0D1EF05F01D6C1E1ED8B0AD
:100BA0001E2A1DC01DF01EC01EF012001DC01FF029
:100BB000D8901F36D8901F363C0E1F16C250C30B5C
:100BC0001F10C26EC2B2E7EF05F0EBEF05F01F6A2F
:100BD0001F2AECEF05F01F6A010E206E1F2AF3EFAB
:100BE00005F0D89020361F2EF1EF05F0C2B0FBEFD4
:100BF00005F0FFEF05F0216A212A00EF06F0216AD7
:100C0000010E226E212A07EF06F0D8902236212EFF
:100C100005EF06F022502010C212C2B212EF06F009
:100C200014EF06F00DEF06F0C350C4CF1FF0206A9A
:100C30001FC020F01F6A1F10236E2050246E23C097
:100C40001DF024C01EF012000F0E936E9394939229
:100C500093900A0E216EBC0EE82EFED7212EFCD7F3
:100C600000D0320E5CEC06F0280E5CEC06F00C0EA8
:100C70005CEC06F0010E5CEC06F0060E5CEC06F097
:100C800012004DEF06F021C0F6FF22C0F7FF08006A
:100C9000F5508FEC06F0214A222A21C0F6FF22C02F
:100CA000F7FF0800F5500009D8A459EF06F05BEFF4
:100CB00006F043EF06F01200206E040E1F6E3E0E8B
:100CC000E82EFED71F2EFCD7000E1D6E2050A5EC7F
:100CD00006F02038F00B206EA60EE82EFED700D0CE
:100CE000000E1D6E2050A5EC06F01200700EF66E80
:100CF0000D0EF76E000EF86E00EE01F010EE1CF017
:100D00000900F5CFEEFFE550E150FAE12A6A296AC1
:100D1000000EF86E080EF76E000126EF05F0206E4B
:100D2000040E1F6E3E0EE82EFED71F2EFCD7010EBE
:100D30001D6E2050A5EC06F02038F00B206E010E41
:100D40001D6E2050A5EC06F012001E6E1E50F00B1A
:100D50001E6E8A500F0B8A6E8A501E108A6E1DB04E
:100D600002D08A9001D08A808A928A848A94120062
:100D7000070809080B080D080F08110813081508C3
:100D800017081908070807080708070892680D0ED2
:100D9000C16EB50EC06E000EC46E000EC36E1200A2
:020000040020DA
:08000000FFFFFFFFFFFFFFFF00
:020000040030CA
:0E000000000C1F1FFF8385FF0FC00FE00F4095
:00000001FF
